:020000040800F2
:10000000400700205D0200084F0300084703000876
:100010004B030008A50200080D05000800000000C1
:100020000000000000000000000000009D0100082A
:10003000A902000800000000F9010008710400088E
:1000400077020008770200087702000877020008AC
:10005000770200087702000877020008770200089C
:10006000770200087702000877020008770200088C
:10007000770200087702000877020008770200087C
:10008000770200087702000877020008770200086C
:10009000770200087702000877020008770200085C
:1000A000770200087702000877020008770200084C
:1000B000770200087702000877020008770200083C
:1000C000770200087702000877020008770200082C
:1000D000770200087702000877020008770200081C
:1000E000770200087702000877020008770200080C
:1000F00077020008770200087702000877020008FC
:1001000077020008770200087702000877020008EB
:1001100077020008770200087702000877020008DB
:1001200077020008770200087702000877020008CB
:1001300077020008770200087702000877020008BB
:1001400077020008770200087702000877020008AB
:10015000770200087702000877020008770200089B
:10016000770200087702000877020008770200088B
:10017000770200087702000877020008770200087B
:100180007702000877020008DFF80CD000F078F85A
:1001900000480047E5050008400700202C4B19687F
:1001A0000868B0E8F04F80F30988BFF36F8F4FF015
:1001B000000080F3118870470000000008480068C4
:1001C000006880F308884FF0000080F3148862B65E
:1001D00061B6BFF34F8FBFF36F8F00DF00BF00BF6B
:1001E00008ED00E0DFF80C00016841F470010160E7
:1001F000704700BF88ED00E0EFF30980BFF36F8F19
:10020000134B1A681EF0100F08BF20ED108A20E96A
:10021000F04F106009B44FF0500080F31188BFF325
:100220004F8FBFF36F8F00F011FA4FF0000080F393
:10023000118809BC19680868B0E8F04F1EF0100F6B
:1002400008BFB0EC108A80F30988BFF36F8F704746
:1002500014000020EFF30580704700000648804737
:1002600006480047FEE7FEE7FEE7FEE7FEE7FEE79B
:10027000FEE7FEE7FEE7FEE7A504000889010008A7
:10028000064C074D06E0E06840F0010394E80700E3
:1002900098471034AC42F6D3FFF77AFF9408000871
:1002A000B408000800BFFEE77047F0B50A46002119
:1002B0000023002400BF3DE0012505FA01F3156885
:1002C00005EA03049C4234D105684F000326BE4072
:1002D000B543056015794E00B540066835430560A5
:1002E0001579012D02D01579022D16D185684F00A0
:1002F0000326BE40B543856055794E00B5408668FB
:1003000035438560456801268E40B54345604568A4
:1003100096798E40B6B235434560C5684F000326D6
:10032000BE40B543C560D5794E00B540C66835437B
:10033000C560491C1029BFD3F0BD018370474269D5
:100340004A404261704700BFFEE700BFFEE77047CA
:1003500002490143024A1160704700000000FA059B
:100360000CED00E029B1064A12680243044B1A6002
:1003700004E0034A12688243014B1A607047000090
:10038000303802400CB500200190009034480068DD
:1003900040F480303249086000BF3148006800F402
:1003A000003000900198401C0190009818B9019805
:1003B000B0F5A04FF1D12A48006800F4003010B128
:1003C0000120009001E0002000900098012846D113
:1003D00023484030006840F0805021494031086097
:1003E0002048006840F440401E4908601C4808301E
:1003F00000681B49083108600846006840F4004066
:1004000008600846006840F4A05008601648091FBC
:100410000860081F006840F08070091F086000BF76
:100420000F48006800F000700028F9D040F2057015
:100430000E4908600A480830006820F003000849A7
:10044000083108600846006840F00200086000BFFC
:1004500003480830006800F00C000828F8D10CBDF3
:100460000038024000700040062D4008003C024069
:1004700010B500BF502080F31188BFF34F8FBFF33A
:100480006F8F00BF00F028F918B14FF08050044979
:10049000086000BF002080F3118800BF10BD00007D
:1004A00004ED00E010B51548006840F470001349F1
:1004B00008601348006840F00100114908600020FE
:1004C0000F49083108600E4800680E4908400C4981
:1004D00008600D48091D0860081F006820F480208E
:1004E000091F0860002006490C310860FFF74AFF29
:1004F0004FF0006001498039086010BD88ED00E0D0
:1005000000380240FFFFF6FE1030002400BFFEE777
:1005100002E008C8121F08C1002AFAD170477047CC
:10052000002001E001C1121F002AFBD1704700002A
:1005300030B5084C636800BF064C6168CA1A064CA7
:1005400024684FF47A75B4FBF5F444439442F3D82D
:1005500030BD0000001000E0000000201CB50121AB
:100560008020FFF7FFFE4FF4E050009001208DF84F
:10057000040000208DF8060003208DF805000120FE
:100580008DF8070069460248FFF78FFE1CBD00008A
:10059000001C024010B54FF480610248FFF7CFFE07
:1005A00010BD0000001C024010B54FF4006102486D
:1005B000FFF7C3FE10BD0000001C024010B54FF451
:1005C00000610248FFF7BBFE10BD0000001C0240A6
:1005D00010B54FF480510248FFF7B1FE10BD000086
:1005E000001C02404FF44070FFF7B2FEFFF7B6FF69
:1005F000FFF7DAFF0EE008480088401C0649088033
:100600004FF4FA70FFF794FFFFF7E2FFFFF7D6FF12
:10061000FFF7C0FFEFE70000540000200948006822
:10062000006808B9012000E0002020B14FF0FF3041
:100630000549086005E003480068C0680068024991
:100640000860704718000020440000201D48006822
:1006500018B101201C49086032E000201A490860E6
:100660001A480068B0FA80F0C0F11F0101EB810068
:10067000174A52F8200008B1012000E0002050B9CC
:1006800000BF502080F31188BFF34F8FBFF36F8FEF
:1006900000BF00BFFEE701EB81020D4B03EB8200C0
:1006A00042685268426000F108024368934202D1F6
:1006B0004268526842604268D268064B1A6000BFC6
:1006C0007047000050000020380000202C0000205F
:1006D00058000020140000202DE9F0414FF00008E0
:1006E0006148006800287DD160480068451C5F486B
:1006F000056015BB5E480068006808B9012000E08D
:10070000002050B900BF502080F31188BFF34F8FF5
:10071000BFF36F8F00BF00BFFEE75548076855481D
:100720000068534908605348076053480068401CFC
:1007300051490860FFF772FF00BF504800688542CA
:1007400077D300BF4A480068006808B9012000E07C
:10075000002020B14FF0FF304849086068E044486D
:100760000068C068C4686668B54202D24348066043
:100770005EE06069D4E902128A60D4E902214A602D
:10078000211D42688A4201D1E16841600022626114
:100790000168491E0160A06A98B1A06AD4E90712F5
:1007A0008A60D4E907214A6004F1180142688A424C
:1007B00001D1216A41600022A2620168491E0160E4
:1007C00000BF94F82C10012088402D490968084387
:1007D0002B490860E16A01EB81012A4A02EB8101A1
:1007E000486800E037E0A0608268E260211D82680E
:1007F00051608160E16A01EB8101224A02EB8102D2
:100800006261E16A01EB81011E4A52F82110491C24
:10081000E26A02EB82021B4B43F822101A49E06A9B
:100820000968C96A88428DD94FF001088AE700E05B
:1008300000BF15480068C06A00EB8000114951F8FC
:100840002000012801D94FF001081048006808B1C4
:100850004FF0010804E00E480068401C0C49086095
:100860004046BDE8F0810000500000202800002034
:10087000180000201C0000203C0000204400002044
:100880002C00002058000020140000203800002018
:1008900034000020B40800080000002058000000C8
:1008A000100500080C09000858000020E8060000A8
:1008B000200500080095BA0A0000000000000000B2
:1008C0000102030406070809000000000000000000
:1008D0000000000000000000000000000000000018
:1008E0000000000000000000000000000000000008
:1008F00000000000000000000000000000000000F8
:0C0900001F0000000000000000000000CC
:040000050800018965
:00000001FF
